:020000041000EA
:1000000000B5324B212058609868022188439860DF
:10001000D860186158612E4B002199600221596106
:100020000121F02299502B49196001219960352056
:1000300000F044F80222904214D00621196600F024
:1000400034F8196E01211966002018661A6600F04E
:100050002CF8196E196E196E052000F02FF8012189
:100060000842F9D1002199601B49196000215960AB
:100070001A491B48016001219960EB211966A021F2
:10008000196600F012F800219960164914480160C1
:100090000121996001BC002800D000471248134993
:1000A000086003C880F30888084703B5996A0420EC
:1000B0000142FBD001200142F8D103BD02B5186610
:1000C0001866FFF7F2FF186E186E02BD00000240BE
:1000D000000000180000070000035F00212200005C
:1000E000F4000018222000A00001001008ED00E03C
:1000F00000000000000000000000000074B24E7A12
:1001000000200420F7010010C3010010C5010010F9
:10011000C1010010C1010010C1010010C101001097
:10012000C1010010C1010010C1010010C701001081
:10013000C1010010C1010010C9010010CB01001065
:10014000CD010010CD010010CD010010CD01001037
:10015000CD010010CD010010CD010010CD01001027
:10016000CD010010CD010010CD010010CD01001017
:10017000CD010010CD010010CD010010CD01001007
:10018000CD010010CD010010CD010010CD010010F7
:10019000CD010010CD010010CD010010CD010010E7
:1001A000CD010010CD010010CD010010CD010010D7
:1001B000CD010010CD010010CD010010CD010010C7
:1001C00000BE00BE00BE00BE00BE00BEEFF3058054
:1001D000103800BEF2EB8871288C0010488C00109B
:1001E0003802001090A31AE71E481F49086006C88D
:1001F00081F3088810471D480068002801D019487D
:10020000F3E70DA40ECC002902D000F012F8F9E7B4
:100210001749184A002000E001C19142FCD116495B
:100220008847164988471649884700BEFDE701C937
:1002300001C29A42FBD37047488C0010C0000020D6
:1002400028100020B09B00100000042000000420B3
:10025000B09B0010001004200010042000000000DB
:10026000704700000000000008ED00E0000000D032
:1002700028100020B82402207124001075040010FA
:1002800069240010F8B5C0460448054B10B58342F8
:1002900003D0044B002B00D0984710BD281000203D
:1002A000281000200000000006480749091A8B109A
:1002B000C90FC91810B5491003D0044B002B00D04A
:1002C000984710BD281000202810002000000000D2
:1002D00010B5074C2378002B09D1FFF7D5FF054B4C
:1002E000002B02D0044800E000BF0123237010BDA2
:1002F000F013002000000000E4860010054B10B54C
:10030000002B03D00449054800E000BFFFF7CCFFF5
:1003100010BDC04600000000F4130020E486001069
:10032000F0B54F464646D646C0B5194B82B09A4600
:100330006B46DE1D174B00279946174B174C984606
:10034000174D01212068494205F0DEFD0128F8D152
:100350002B68002BF5D0504602F0DAF94B4601220B
:100360003100524218680023377005F07BFBC8202B
:1003700007F0B6FB002300220021206805F072FB85
:10038000404602F0C5F92B685A4253412B60D8E72A
:10039000E4860010B8200020108700103C1C0020CC
:1003A000381C002070B5124C124D134E01212068EC
:1003B000494205F0A9FD012812D1280002F0A8F950
:1003C000C82007F08DFB002100230022206805F0E3
:1003D00049FB01212068494205F096FD0128ECD037
:1003E000300002F095F9C82007F07AFBDEE7C0463E
:1003F0003C1C00203C8700104C87001070B5D026B4
:1004000080250C4C82B036066D0201226B462068B6
:100410005242D91D05F0EAFC0128F6D16B46DB7982
:10042000002BF2D173682B4201D17561EDE7B56104
:10043000EBE7C046B8200020002300B583B001934D
:10044000094B01A9186805F093FC019B002B03D010
:100450008022064B52051A60054A136859424B41E7
:10046000136003B000BDC0463C1C002004ED00E05A
:10047000381C002030B583B002F0FAF80F2000F0ED
:1004800019FAD024802324061B0201220021A36232
:100490000F2000F093F9102000F00CFA80235B028B
:1004A000636203220021012005F08AFA1C4B1860C8
:1004B00000282FD000220121042005F081FA194BD9
:1004C0000024186080220223174900935200002361
:1004D0001648019407F09CF9012580220023144955
:1004E000520014480194009507F092F980220023ED
:1004F0001149520011480194009507F089F90F2025
:10050000012208210E4B00F06DF907F0ABF9002035
:1005100003B030BD0B4802F0FBF801204042F7E782
:100520003C1C0020B820002088870010A503001084
:100530009887001021030010A4870010FD0300100D
:100540003904001060870010D0231B061B68974AEF
:100550009900F0B54E46894651585A4253412F22D0
:1005600057464546DE465B4293439846904BE0B57E
:100570009C4683B000270191E044002939D08D4B7F
:100580000F269B464246FB0808339B009C580123DC
:100590003D009A460837002C22D0310021402642E7
:1005A00018D05B464A469A582B00EA40203BDB179E
:1005B0001340524613420DD1072208002A409200F0
:1005C00090400200EB087C483C339B001A50280006
:1005D000019B984724090135002C01D0BD42DCD392
:1005E000202FCFD103B0F0BCBB46B246A946A046EF
:1005F000F0BD704B00200F229B46C60833004146D9
:1006000008339B005B5801000830002B00D1B2E09A
:1006100017001F40BC461A420FD04C465D460F00E3
:100620002C59203FCC40FF1727400124274204D1FA
:100630006446614F3C36B600F4511E0900D19AE081
:1006400017003740324213D04C1CA4465D464C463E
:100650002C5965460E00EC401F3EF617264001243B
:10066000264205D1EE08544C3C363F01B6003751C6
:100670001E0A00D17FE017003740324213D08C1C95
:10068000A4465D464C462C5965460E00EC401E3E85
:10069000F61726400124264205D1EE08464C3C368A
:1006A0003F02B60037511E0B65D01700374032426B
:1006B0000DD0CC1CA4465D464C462C5965460E0018
:1006C000EC401D3EF61726400124264257D01E0C52
:1006D00051D014003440A44632420BD04C46354E23
:1006E0000F1D3659FE40B2460E0054461C3EF60F12
:1006F00026424BD01E0D3ED014003440A446324258
:100700000BD04C462B4E4F1D3659FE40B2460E00C4
:1007100054461B3EF60F264240D01E0E2BD014002E
:100720003440A446324212D04C46224E8F1D3659D8
:10073000FE40B2460E0054461A3EF60F264206D13F
:100740006446FE083C3627061B4CB60037511B0F8B
:10075000CF1D002B0FD04C465D462E590124FE4084
:100760001939C9173140214205D1F908124E3C31DF
:100770001B0789008B51202800D03EE732E7EE08A6
:100780000D4C3C363F03B6003751A0E76446FF08E6
:100790003C37BE00084F2404F451ABE76446FE0822
:1007A0003C362705044CB6003751B6E7401C002004
:1007B000304101407C23002000400140074B800075
:1007C000C3181B68C90092000A435A400C23134007
:1007D000034A9446604403607047C04604C0014029
:1007E00004D00140F8B545469846D0231B06DE46A6
:1007F0001C689B462B4B57469A46A3004E4699468B
:10080000E0B5534616004A469B5807000D00002BE2
:1008100034D04346002B3FD053464A464146995078
:10082000D0231B061C6863425C412F2207206342D1
:1008300093431D4A38409446FA08110080008540D1
:100840003C311A486344890092000D509B18002ED9
:100850000ED0802292019446634401210D201D6038
:1008600000F026F9F0BCBB46B246A946A046F8BD4A
:10087000C0229201944663441D60F3E74346002B77
:10088000D1D0534641460D2099500022084900F02E
:1008900071F95B461C68C6E70D20054900F064FA53
:1008A000BAE7C046401C00203041014000400140F2
:1008B000490500100123D022834012069362936100
:1008C000094A83009A1811684022514080320A4038
:1008D0000649C0008C4663441A60054B9C460523BC
:1008E000604443607047C04604C0014004D00140EA
:1008F000004001408023DB051868000F7047C046A8
:100900000FB400B5084883B001F002FF049B002B30
:1009100007D005A91800019101F08CFD034801F0F2
:10092000F7FE012001F09EFDAC870010BC8700108F
:1009300010B50148FFF7E4FFC087001070B5EFF372
:10094000108C72B60D4D2B68002BFCD0BFF35F8F5F
:100950000724CB08C618C05C01230C40A3401C0030
:100960000440034207D118433070BFF35F8F2C60FF
:100970008CF3108870BD1000FFF7C2FF2C0100D06F
:10098000F8B54746CE46884680B5EFF3108C72B670
:10099000214D2C68002CFCD0BFF35F8F9A422CD8DD
:1009A000D4080727055D061901241740BC402C42D6
:1009B0001FD007210127894609E0D408055D0619E3
:1009C0004C4639001440A1400C00294211D001329C
:1009D0009342F2D201204042BFF35F8F00220E4BC0
:1009E0001A608CF3108800280FDBC0BCB946B046F3
:1009F000F8BD254310003570EEE7BFF35F8F00238D
:100A00002B608CF31088012040424346002BECD031
:100A10000898FFF775FFC0462C0100D0044A1078F3
:100A2000431CDBB2172B00D9102313707047C0464C
:100A3000580F002010B5034B01001800024AFFF7C1
:100A40007DFF10BD501C0020D087001010B5064B54
:100A5000064C82B00100009318221F232000FFF7EC
:100A60008FFF02B010BDC046F0870010501C002060
:100A70000021044B044ABFF35F8F02C39342FAD1B3
:100A80007047C046000100D0800100D0054B064AE7
:100A90001360064A136053609360D360136153611F
:100AA000936170478080808000E400E004E400E00F
:100AB0001F2318401E3B8340002905D0C021044A53
:100AC0004900535013607047802201498B50FAE768
:100AD00000E100E001228240034B1B6813405A1ED4
:100AE0009341D8B27047C04600E100E00123834043
:100AF000014A13607047C04600E200E0064B103028
:100B00009B688000C358054A00209B1A2F229A42F6
:100B10004041C0B27047C04600ED00E05C0F0020CD
:100B200070B50D00EFF3108672B60F4A1368002BF4
:100B3000FCD0BFF35F8F0D4B10309B6884001B59B6
:100B40000B4A934203D09D4201D001F063F8074B5A
:100B50009B681D51BFF35F8FBFF35F8F0022024B75
:100B60001A6086F3108870BD240100D000ED00E00B
:100B7000CD010010F0B557464E46DE464546E0B57D
:100B800085B0060000911700EFF3108B72B66A4A29
:100B90001368002BFCD0BFF35F8F0025674B5D57B8
:100BA0009A46002D00DAA9E06B00654C01935B19B1
:100BB0009B009846A146C1444B4652469B7910364D
:100BC0001370604BB6009B6899590B1B2F2B33D9C0
:100BD0005D4B994200D0ACE0019B42469C465B4B8A
:100BE0006544AD0063535A4B0232A218043B9B1A72
:100BF0001B05584A5B0D651913436B80564B012149
:100C0000AB80FF23AB71009BEF71AB604B460B4396
:100C100019004C4B9B689951BFF35F8FBFF35F8FF7
:100C20000022454B1A608BF3108805B0F0BCBB4620
:100C3000B246A946A046F0BD01200A008243D379FE
:100C40008C46BB4231D84546130044491B1B5B41CF
:100C50005943090D3D4B63533D4B02356519043B28
:100C60005B1B1B053B4D5B0D2B43AA464D466B8022
:100C70000425AC465546E044131F44441B1B1B058A
:100C80005B0D1D434B46997100999D8099604946C3
:100C9000DF71334B01431360BBE75800C01880007D
:100CA0002018C179B9422FD902000623D356002B50
:100CB000F3DA02932B4B61460393131D9A460423E8
:100CC0005B429C46E14450464B461B1A1B055B0D9C
:100CD0009C46204B9571984663464046034393805B
:100CE000019B5A199200039BA418A380029B1C4AE3
:100CF000A371009B2260E771A3608AE700F08AFF7E
:100D0000002553465D574FE7908802934005131D19
:100D10009A46031561469C464046D44463460430D7
:100D20002018181AE0230005400D1B0218430390F9
:100D3000C5E700F06FFF4FE7240100D0B024022088
:100D40005C0F002000ED00E0CD01001000A1FFFFCE
:100D50008C0F002000E0FFFF01BDFFFFAAAA0000EA
:100D60000148804701BD0000F0B5DE4657464E46BB
:100D70004546E0B50C0083B0EFF3108872B6634AC5
:100D80001368002BFCD0BFF35F8F614B61499A68F9
:100D9000030010339F00D55900938D4243D0A542E4
:100DA00054D05D4EAA1B2F2A3DD85C4B9C461B6835
:100DB0009A4601231A0099468240534613401F2247
:100DC00001934B46024093409A4680226346504628
:100DD0009850BFF35F8FEFF305839B46002B37D00E
:100DE000009B5B4501D000F015FF2A004B469A435B
:100DF0009068844208D177E04B005B189B00F318A1
:100E00009868844236D01A00062151560029F3DA38
:100E1000844255D0019B002B27D0C02251463F4B26
:100E20005200995019603A4B9B68DD51BFF35F8FB8
:100E3000BFF35F8F0022354B1A6088F3108803B030
:100E4000F0BCBB46B246A946A046F0BD0D00EAE79D
:100E50002A004B469A4390688442D5D1062010560A
:100E6000130000280ADA0D0032E0802351462B4A95
:100E7000D150D8E706201856002822DB420011186E
:100E8000890074188946A1689960E179D9710621B1
:100E900061569971002925DBA488F11A640524158F
:100EA0004C440919E0240905490D24022143998085
:100EB00013181B4A9B001178F31899711070A9E759
:100EC00013005946002914D1FF31917115499180C1
:100ED00013490A789A71144A9B1B5B415A43120DBD
:100EE0000A7097E71149E2E7062010561300002820
:100EF000C4DA0F4A0F49D21A083A5002400D014392
:100F000099800D4952080A43DA8083E7240100D012
:100F100000ED00E0CD0100105C0F002000E100E0DA
:100F2000B024022001BDFFFFAAAA000001BD0000FD
:100F3000960F002000F0FFFF00F8FFFF10B58308B8
:100F4000040003202040FF24054AC000944684404A
:100F500081409B0063441A68A2430A431A6010BD93
:100F600000E400E070B501240443EFF30581EFF3E2
:100F7000108C72B6214A1368002BFCD0BFF35F8F30
:100F80001F4B05001F4AED1A6D416A43120D1E4D9D
:100F90008900AE6852B27658A6421CD00621595636
:100FA00091421CD012215956914222D01E215956ED
:100FB000914220D02A2159560324914210D0134B3C
:100FC00019781A708171BFF35F8F00220B4B1A6082
:100FD0008CF3108870BDAB680D4C5C50EFE70024BB
:100FE0006100091989005B18FF21997109499980ED
:100FF000E5E70124F4E70224F2E7C046240100D02B
:101000005C0F0020AAAA000000ED00E0B02402203E
:10101000CD01001001BDFFFF10B5084B084C82B098
:1010200001000093002205232000FFF7A9FC0028FF
:1010300001DB1F23181A02B010BDC0460C88001037
:10104000B4240220024B9C46614489000160704731
:1010500040000034F8B5124C124DAC4212D20126B9
:10106000002776422368002B0DD0FFF7D7FC010044
:101070002000FFF7E7FF66602772BFF35F8F0C3435
:10108000AC42EFD3F8BDFFF7C9FC01002000FFF729
:10109000D9FF6660BFF35F8F0834AC42E2D3F1E75B
:1010A000181000202810002010B50400FFF7B6FC2F
:1010B00001002000FFF7C6FF01235B426360BFF31E
:1010C0005F8F10BD10B504000120FFF7BFFC034B7C
:1010D000C3189B002360BFF35F8F10BD4000003436
:1010E000034B9C46614489000160BFF35F8F7047EA
:1010F00040000034F0B5DE4657464E464546E0B562
:1011000083B0EFF3058203231340B54A9900525888
:101110000091904601229A409346B24B1A60B24B1E
:1011200001935B46B1484363434608229B5E994660
:10113000002B3ADA43469B881BB2002B00DB9DE074
:1011400043469B79002B00D0E1E0434608241C5F16
:10115000002C20DB43465A6963001B19DB00D318BF
:101160009D68DC686B1C00D103E1A04800998446AF
:101170006144826A0B69AE1A9B1A9E4213D35A4687
:10118000036A1A420FD0994800F03AFB8C4202DC05
:10119000C7D18542C5D940BF03B0F0BCBB46B246FB
:1011A000A946A046F0BD0D61EDE7424652695B00DD
:1011B00092464B44DB009A4453469E68DF6800F039
:1011C0001FFB8F42B6DC00D1F8E0002F00DAD9E037
:1011D0005246534654691B69019A934200D1CCE0B0
:1011E000414652460820085E528800042100104300
:1011F000984704000D0023002B4300D1C2E0002DCE
:1012000000DBDFE030003900001BA9415346986045
:10121000D96000229A5E002A00DA8BE743465D69B6
:1012200053009C18E4002C19A768E4688C4200DD88
:1012300080E702D1874200D97CE7464632810836F2
:101240000DE08C4200D1C6E01E000023F25E002AB1
:101250000ADB53009C18E4002C19A768E4689B186B
:10126000DB00EB188C42ECDD53461A804B46338092
:1012700043469B881BB2002B00DA61E743461A699C
:10128000EFF3108172B61368002BFCD0BFF35F8FB1
:1012900043469E88012342465B42938036B21369DF
:1012A000BFF35F8F00221A6081F31088002E00DAEE
:1012B00046E743465D69083342469C467700BF19BE
:1012C000FF00EF19BB68604698460823D15E92463E
:1012D000FC68002907DA0EE0A24246D0180000237D
:1012E000C15E002906DB4B005B18DB00EB18DA68F7
:1012F000A242F1DD524606800023FE5E3980002EB8
:10130000DCDA904643469B79002B00D11DE7002391
:1013100042469371434646460821595E08364B1CA7
:1013200000D138E747468946556902E006004B1C64
:1013300018D04B005B18DB00E8180A008C46E95E09
:1013400043881BB2002BF1DA01235B42DC17836078
:10135000C4604A4503D031803B8903803A81E1462D
:101360004B1CE6D1B8464C46F2E69A684245B5D9E0
:10137000C0E7631C00D0F8E605E720002369984722
:10138000002825D1534642461B8813811269EFF38A
:10139000108372B611680029FCD0BFF35F8F4246FC
:1013A000514652880A804246494651801269BFF32D
:1013B0005F8F0021116083F31088BBE6864200D85E
:1013C00003E7B7E6094800F01BFA001969411DE779
:1013D000656824680FE7874200D835E744E7C046D0
:1013E000D02000203C700540F51000100040054062
:1013F000074810B50268EFF3108172B61368002B2E
:10140000FCD0BFF35F8F03F0C7FF0020002110BDA9
:101410009023002070B52E4C2569002D04D00A21A0
:101420002C48FFF70FFE70BD2B4E0321300000F05B
:10143000DDF9E660FFF7F2FA284B03229C46D02341
:1014400022701B061B6801216370254B6044A3605A
:101450000F23800020610220638063694942A180DC
:1014600019800231198647311D83585218315A525A
:1014700075325C3999521832013199521832013162
:101480009952183201319952083518329D52023161
:101490001832995218320131995218320131995249
:1014A00018320131995218320131995218320131F2
:1014B00099520C4B0C49DC6001303562FFF730FB70
:1014C00001210320FFF7F4FA084B1D60A7E7C0468F
:1014D000A40F00209023002000400540400000346D
:1014E000FFFF1000D0200020F510001038600540EC
:1014F00000487047A40F0020F8B51F0008AB1B7808
:1015000004001600002B08D100F082F932003B00E5
:10151000121A8B41002B00DA53E02269EFF310809E
:1015200072B61368002BFCD0BFF35F8F0223E15E1D
:1015300063694A005218D2009B18002937DB1A88C9
:1015400062802269BFF35F8F0025156080F31088E9
:10155000069A9E60DF601A61079A5A615A880132C2
:101560005204520C101C002A1FD082B2588008046A
:1015700010432669EFF3108772B63268002AFCD058
:10158000BFF35F8FA2881A80A1802369BFF35F8FAA
:1015900000221A6087F310880B4923788C460132A9
:1015A0009A40E36863441A60F8BD0120DDE72369CF
:1015B000BFF35F8F00221A6080F310880120404241
:1015C000F2E70020F0E7C0463C20000070B50100C3
:1015D0000469EFF3108C72B620680028FCD0BFF3CA
:1015E0005F8F02200D5E4C6968004019C00024180E
:1015F000002D37DB208848800869BFF35F8F002605
:1016000006608CF31088E3606388049801332061DE
:101610005B0405985B0CA26060611A1C002B1FD054
:1016200093B22804628018430A69EFF3108C72B6F3
:101630001368002BFCD0BFF35F8F8B8823808D80D5
:101640000B69BFF35F8F00221A608CF310880B7850
:1016500001329A40CB6808498C4663441A6070BDD9
:101660000122DDE70B69BFF35F8F00221A608CF364
:10167000108801204042F2E73C20000010B5438969
:101680000A1493421ADD53009B184269DB00D318F9
:101690000469EFF3108C72B62268002AFCD0BFF305
:1016A0005F8F5A88090494B2090C8A4208D00369F2
:1016B000BFF35F8F00221A608CF31088002010BDEA
:1016C0008022120214435C80012302698371BFF3FC
:1016D0005F8F002111608CF31088044902788C46DA
:1016E0009340C268012062441360E8E73C20000098
:1016F00040787047F0B5D6464F464646C0B5040020
:101700000D0082B0EFF305878946002F0ED03449D3
:1017100000204B6AAB4203D38A6A0130A24226D32F
:1017200002B0E0BCBA46B146A846F0BD2D4B984683
:10173000DB689A46434650461E7800F061F80B007D
:10174000514602000436B600715820008E1A290056
:10175000801A99418F4211DC0ED020BF204A002010
:10176000536A4B45DCD3926A0130A242D8D25B1B4C
:101770005A1E9341D8B2D3E78642EED900F048F81A
:1017800022002B00121A8B41002B1ADB002301933D
:10179000154B2200009340462B00FFF717FF011E58
:1017A0000FDD0F4B5A6A4A4517D39B6AA34212D3E7
:1017B0004046FFF763FF0A4A0020536A4B45AFD308
:1017C000D1E7074A0020536A4B45A9D3926A01200A
:1017D000A242A5D2CBE74A45EAD120BFE8E7C046FE
:1017E00000400540A40F0020F113001010B5024A7C
:1017F0000248FFF7A3F810BD28880010541C0020F1
:101800000300416A0A00986A596A8A42FAD170470D
:10181000034B596A0A00986A596A9142FAD1704793
:1018200000400540F8B5DE464E4657464546E0B511
:101830008B4605000A991800160000F0DDFA0A9B95
:101840006C001F02324B64199C46A4006444636818
:1018500081469F4200D967602B1FDBB29846012B5F
:1018600030D9C02380229B01E31812011A60294B52
:10187000AD0059599A4600291BD17301E026226810
:1018800053401E40802342465B01E3181E60012A3C
:1018900030D9802380229B01E31812011A6053463D
:1018A0004A4667605A51F0BCBB46B246A946A046BC
:1018B000F8BD586900F0A0FA013043001B18033B43
:1018C000FDD2DAE75B46012BCBD1C02303229B017B
:1018D000E3181A60023AA3681A42FCD07301E026AA
:1018E0002268AD0053401E4080230A4A5B019246A5
:1018F000E3181E605A462168514003220A401A60CC
:1019000001225B469A40A3681A42FCD0C1E7C04658
:1019100000800040581C0020F0B546464F46D64691
:10192000C0B51F00344B44009C462418A4006444F6
:10193000636888461600FF2B02D880235B00636033
:10194000031FDBB29A46012B30D9C02380229B01B2
:10195000E31812011A60294B85005959994600294C
:101960001BD17301E026226853401E40802352465B
:101970005B01E3181E60012A30D9802380229B017D
:10198000E31812011A6080235B0063604B465F51CD
:10199000E0BCBA46B146A846F0BD586900F02CFA42
:1019A000013043001B18033BFDD2DAE74346012B0D
:1019B000CBD1C02303229B01E3181A60023AA3682B
:1019C0001A42FCD07301E0262268850053401E4075
:1019D00080230A4A5B019146E3181E604246216853
:1019E000514003220A401A60012342469340A268F4
:1019F0001342FCD0C1E7C04600800040581C0020C4
:101A0000014B8000C0587047581C0020F8B50400F6
:101A100021481E0017000D0000F0EEF9010038000B
:101A200000F0EAF9069B36041B031E432368002BD3
:101A300020DB1A4B1A49E3185A1E93418022920167
:101A400094465B421B0B174A1B0363441360164A00
:101A500013601F000A689743FBD1144B2560E218FE
:101A60002123A06013602368002BFCDA0823E660C2
:101A70001360F8BD3F2322681340AB42D9D1A3685D
:101A80001B051B0D8342D4D1EE22E368D202134022
:101A9000B342CED1EDE7C046001BB7000040FDBF0A
:101AA00008C0004000E0004000F0004004300000AA
:101AB00010B580241C4BE4051C6000281AD00123BB
:101AC0001A4C18431A4BDC611A4C44401C62596290
:101AD00098628021144BC90519601748174908609E
:101AE000E021C9041960002A07D18022144B120694
:101AF0001A6010BD0E4BD861EBE753019B1A9B0097
:101B00009A18802312015B049A4209D213000D49EE
:101B10000B60074B5A608022094BD2051A60E8E738
:101B2000094B1A00F3E7C04600B00540D3C007B028
:101B3000008005402D3FF84FFCFF010008200140C8
:101B400000A00540BC200020FFFFFF008023024AC8
:101B50009B000B43D362704700800540142310B5EF
:101B60000100188804331B88984710BD162310B550
:101B70000100188802331B88984710BDF8B5474606
:101B8000CE4680B50F1E19D01423994604330400A5
:101B90000025012698464B461888434621681B8835
:101BA000984701C4431E9841013540420640AF4268
:101BB000F1D13000C0BCB946B046F8BD0126F8E707
:101BC000142370B50400188804331B880D000549E0
:101BD000984703000020002C01DB0130A0402900C1
:101BE0009847C04655420000AA23064A1B011360CD
:101BF0008D235B00D3600449044B19605368002BAC
:101C0000FCDA70470040024000B0FA000060024079
:101C10007047C04610B50148FEF772FE4C880010B0
:101C200070B5074D074EB54209D20024013E761B20
:101C3000B60808CD984723000134B342F9D170BDEE
:101C400098860010D486001070B5074D074EB54237
:101C500009D20024013E761BB60808CD9847230020
:101C60000134B342F9D170BDCC860010D486001087
:101C7000054B064A06491A60064A074B1A601000CF
:101C80000B689843FBD1704700E00040BFCDFBFEDE
:101C900008C00040FE7F3C0000F00040044BDB6CBD
:101CA000002B03D18022034BD2021A607047C0463A
:101CB000000011504C201150044A054B1A60054A8F
:101CC0001368DB018033FBD17047C046FFFFFF0183
:101CD00000F0004008C000404022034B9A675A675A
:101CE0001A67DA667047C04600F0014010B5FEF78B
:101CF000BFFE10BD70B5044D044CA968C022200081
:101D000000F08AFBAC6070BD00ED00E00000002038
:101D1000002310B5294C82B0A367FFF765FF0122AD
:101D2000274B1A60636C012BFCD10322254B1A60F0
:101D3000224A936B012BFCD1013300930121224AEB
:101D400022480433FFF762FE052301210093204A55
:101D50002048FFF75BFE0022022104201E4BFFF704
:101D6000DBFD0022012105201C4BFFF7D5FD0022E1
:101D7000002107201A4BFFF7CFFD00220021082089
:101D8000174BFFF7C9FD8023DB00009300220021E1
:101D90000920134BFFF746FD0022104B00210620BF
:101DA000FFF7BAFD0420FFF72BFE0E4900F024F8E0
:101DB00001000020FFF7CAFE02B010BD0080004005
:101DC0003CB0004030B00040002F68590080024015
:101DD000008C864700C00240001BB70040597307C3
:101DE000006CDC0240420F0001480421014B1847FF
:101DF000C00F00207D1B0010114A936F9B0813D267
:101E000010665166002905D0FFE7FFE7FFE7516F35
:101E1000106F704704B5002801D00020C04306F0C1
:101E200003FC002104BDC046F0B5146E556E576F1B
:101E3000166FFFF7E5FF1466556657671667F0BD26
:101E4000000000D094464A4A926F9208624601D23E
:101E500028E0C046F0B5464E346E756E776F366F2B
:101E600000F020F89446424A146655665767166794
:101E70006246F0BD94463E4A926F9208624601D295
:101E800054E0C046F0B53A4E346E756E776F366FDB
:101E900000F04CF89446364A146655665767166744
:101EA0006246F0BD002B24DB11D000293EDA00B5DC
:101EB000C943404200D1013100F038F8C9434042E3
:101EC00000D10131DB43524200D1013300BD002A71
:101ED000EBD1002801D1002905D00020C90FC90786
:101EE00001D1C043410800B506F08EFB002200235B
:101EF00000BD00B500290ADBDB43524200D10133AB
:101F000000F014F8C943404200D1013100BDC9437B
:101F1000404200D10131DB43524200D1013300F095
:101F200005F8DB43524200D1013300BD002923D123
:101F3000002B18D1002A0CD0BC460D4F38667A66AB
:101F400000210023FFE7FFE7FFE77A6F386F67465E
:101F50007047002801D00748010000B506F054FB87
:101F60000022002300BD02000B000020002170476A
:101F7000000000D0FFFFFFFF002B00D0BFE0130CDC
:101F800028D1002AE7D080B4114F39667A66FFE77E
:101F9000FFE730B4040C7B6F396F1B0423433B66AF
:101FA0007A66FFE7FFE7FFE7C04684B27B6F3D6FCD
:101FB0001B0423433B667A66FFE7FFE7C046002326
:101FC0002C042D0C7A6F386F00196941B0BC704732
:101FD000000000D0F0B594460025140E01D1120285
:101FE0000835140F01D112010435940F01D192006C
:101FF0000235D40F01D152000135D40B0134254FE5
:102000007C66254C3C660E0C93B2FFE7FFE7FFE7CA
:102010003C6F6643360C7703BE467343DF0B5B04AD
:10202000C01AB941130C7343DB18C91ACE086643B2
:10203000360CB64493B273431F0F1B01C01AB9414B
:10204000130C73431F0B1B05C01AB941860D8F0279
:102050003E436643360C092D24DB520A7243801A34
:102060007703460A6643360C16235B1BDE40DF40CF
:10207000BF1964466643821B70460435063301006F
:10208000D940A840C01900D30131A24206D2002392
:10209000F0BD0000000000D0FFFFFFFF121B013069
:1020A000F3D3F1E709277F1BFE406446A2B27243D7
:1020B000801A00D20139220C7243130C1204821AC6
:1020C00099410B007046043513370100F940A840D0
:1020D000801900D30131002B02D1A2420AD2F0BDF7
:1020E000013000D30131121BFAD2013BF8D1A242D8
:1020F00000D2F0BD013000D30131121BF7E7F0B57B
:102100001C0C00D080E00CB400251C0A04D11B027A
:10211000160E3343120208351C0B04D11B01160F97
:102120003343120104359C0B04D19B00960F3343BB
:1021300092000235DC0B02D192185B4101351C0084
:10214000971864410134464F7C66464C3C660E0C41
:10215000FFE7FFE7FFE7C0463C6F6643360C7703B7
:10216000BE4697B27743C01B00D20139C01B00D2D4
:1021700001399FB27743C91BC91B170C77437E04F3
:10218000FF0B801BB941CE086643360C0C2D33DBA8
:10219000B644120B1F053A431B0B97B27743C01B83
:1021A00000D201399FB27743C91B170C77433E0415
:1021B0003F0C801BB941860D8F023E4366432927A1
:1021C0007F1BFE400C3D7746AF40BF1930BCA2B22A
:1021D000ABB272437343801A9941220C7243130CC1
:1021E0001204801A994102000B000137001BA9411B
:1021F000F9D2781E0021F0BD0C277F1BFE407746E8
:102200007F0BAF40FF19E0E700245D1C07D0144F9F
:102210007D663966FFE7FFE7FFE7FFE73C6F95B2B2
:102220009EB265436643401BB141150C1E0C6543CD
:10223000664336042F0C3E432D04401BB1419942A6
:1022400004D202000B0020000021F0BD01D1904219
:10225000F7D3801A994101349942F2D3F6E700008E
:10226000000000D0FFFFFFFF132370B51D78012D84
:1022700019D014DD1F48FFF779FC06001E48FFF750
:1022800075FC1E4C80223100200000F0C5F8022DA4
:102290002DD01B48FFF762FC1A4B186070BD1A4B1B
:1022A000164CA364F5E7184B144C23606360A360DD
:1022B000E36023616361A361E36123626362A362FC
:1022C000E36223636363A363E36323646364A364DC
:1022D000E36423656365A365E36523666366A366BC
:1022E000E36623676367A367E367A364D1E7064BED
:1022F000A364CEE75344000053460000B011002011
:102300004C3300008C2300200D23001007B56046DD
:1023100001880A0A0230DF2AFAD1C9B2820804D33E
:10232000028840880004104300E00068014A5050D1
:10233000039007BDB011002051434343C9188C4698
:10234000110C83B24B4310B4040C614392B280B2BF
:10235000504362431C041B0C001910BC5941130468
:10236000120CC0185141614470470000132310B58E
:1023700012481C78FFF7FAFB0100012C0AD003DD9C
:1023800080220F4800F048F80E48FFF7E7FB0E4B9D
:10239000186010BD0A4C5422200000F03DF80B4B91
:1023A0006365A365E36523666366A366E3662367E7
:1023B0006367A367E3672362E361E5E753460000D1
:1023C000B01200204C3300008C230020D1230010D9
:1023D00007B5604601880A0A0230DF2AFAD1C9B27D
:1023E000820804D3028840880004104300E000689B
:1023F000014A5050039007BDB0120020014804214B
:10240000014B1847D00F00207D1B0010014B1B68AB
:1024100018470000D00F0020014B5B6818470000F0
:10242000D00F002010B5002800D110BD00F024F915
:10243000FBE7C04610B5094A0300146884B0002CBD
:1024400008D0012200910648524203A9A04701206A
:1024500004B010BD00F05CF90020F9E7B4200020C2
:102460002524001000BEFDE710B5FFF7FBFFC046B6
:1024700070B5FFF7D5FB074D074EB54209D20024D2
:10248000013E761BB60808CD984723000134B342BD
:10249000F9D170BDD4860010E4860010030010B599
:1024A000080011001B68984710BDC046F0B5C6462D
:1024B00000B5437D07000D001600002B38D0002A20
:1024C0002EDD00216A1E90466A5C037D4C1C0020B4
:1024D0000A2A0CD0A64216D043461B5D21000D3BB4
:1024E0005A4253416A5CDBB24C1C0A2AF2D1002BDF
:1024F000F0D1884217DB022110483B689847A6427A
:1025000007D02000E8E7864203DD311A3B6828182F
:102510009847AD19013D2B780D3B5A4253413B750D
:1025200080BCB846F0BD091A3B6828189847E2E716
:102530000368110028009847F2E7C0469889001008
:10254000F0B5DE4657464E464546E0B585B0170025
:102550001C0006000D00FFF75BF90023314A12183A
:102560004B41802109068B4202D301222E4B52425D
:102570002E4908008A4606F077F801906B1C03D1BB
:10258000300005F09BFF0500002C26D0284B984614
:10259000284B1C68002C15D0002F21D1264F02E0BB
:1025A0002469002C0ED02368002BF9D03B68002B47
:1025B00001D09C42F4D120002A003100C047246998
:1025C000002CF0D1019B002B28D1280005B0F0BCD5
:1025D000BB46B246A946A046F0BD184B9846D7E781
:1025E000154B994602ABDF1D0A239B4602E0246986
:1025F000002CE7D02368002BF9D04B461B68002B3A
:1026000001D0A342F3D12A0031002000C0475B462D
:102610000122390020003B70C047E8E7504605F032
:10262000EBFFD2E740420F00FFFFFF7F20100020AA
:10263000AD240010A81C0020B01C00209D24001018
:102640000A4A1368002B05D10CE01A001B691032EE
:10265000002B07D09842F8D1002902D103691360FA
:10266000016170470029FCD01060FAE7A81C002027
:1026700010B500F08DFA10BDF0B5CE46474680B5D6
:1026800083B06B460600DD1D2870FFF7C1F80023FC
:102690001A4A12184B41802109068B4202D30122AB
:1026A000174B524217490800884605F0DDFF164BCC
:1026B00081461C68002C14D0144F02E02469002CC1
:1026C0000FD02368002BF9D03B68002B01D09C422F
:1026D000F4D1200001222900FFF7E8FE2469002C34
:1026E000EFD14B46002B05D1300003B0C0BCB9463A
:1026F000B046F0BD404605F07FFFF5E740420F00D1
:10270000FFFFFF7F20100020A81C0020B01C00202D
:1027100070B5040005F0D2FE01230100050001227E
:102720002000FFF70DFF084B1C68002C06D06368E3
:10273000002B05D098472469002CF8D1280070BDE3
:102740002469002CF3D1F9E7A81C00207047C0468B
:102750000022014B1A707047B12402204B790020EF
:10276000FF2B0BD18B79002B08D1CB79012B05D115
:10277000082A03D9024B8A7809301A707047C0467C
:10278000B12402200120704710B5012901D0012099
:1027900010BD13495379107909781B0203430020B7
:1027A0009942F5D15378012B08D0022BF0D10020AB
:1027B00064220021FFF77CF90120E9E7D3789178C2
:1027C0001B021943DB0507D54A0A100001231A40F2
:1027D0007E331940FFF7F4F901204A0A4042F5E739
:1027E000B124022000487047648A001070B50500CB
:1027F00014000120012909D153780020012B05D1B3
:10280000637912791B021343072B00D070BD21009E
:102810002800024A9F3301F05FFAF7E7BC890010F5
:1028200001230370004870479C8900104B780A7898
:102830001B0213438A7810B512041A43CB781B0687
:1028400013439622D200934200D010BD00220120F3
:1028500011004042FFF7B4F9024B1860024B1960B7
:102860007047C046481C00204C1C002010B5024B8D
:102870001878FEF73BF910BDB2240220154B70B555
:102880001A68002A22D0EFF3108172B6106800286F
:10289000FCD0BFF35F8F00200F4A596010701B6897
:1028A000BFF35F8F186081F31088002400250B4E62
:1028B0003078FEF70FF9002804D100240025290004
:1028C000200070BD3078FEF711F9F8E7FA240025F2
:1028D000A400ECE7C8200020B3240220B224022088
:1028E00070B5040000200E0001F016FB002836D061
:1028F000002001F027FB002831D0FEF789FF0023DC
:10290000184A12184B41802109068B4216D2164DE7
:10291000280005F0A9FE002821D0002001F0FCFAD3
:1029200000280FD101200021404200F009FD0324BE
:102930006442280005F060FE200070BD01220B4BB0
:102940005242E4E7002001F0FDFA0028EAD021001D
:102950003200002001F000FB041EEAD1E7E7032467
:102960006442E9E740420F0094230020FFFFFF7F0D
:1029700010B5FEF74DFF00230E4A12184B4180217F
:1029800009068B4202D301220B4B52420B4C200012
:1029900005F06AFE00280CD001200021404200F022
:1029A000CFFC002001F022FB0028F5D1200005F02B
:1029B00023FE10BD40420F00FFFFFF7F9423002045
:1029C000F8B5DE46574680B505000C00FEF720FF3F
:1029D0000023374A12184B41802109068B4202D34B
:1029E0000122344B5242344908008A4605F03CFE2D
:1029F000002803D1C0BCBB46B246F8BD002001F0A0
:102A00008BFA00284AD00026002C43DD2B4B9B4636
:102A100014E0A919002001F023FB07000120002188
:102A2000404200F08DFC002001F0E0FAFEF7F0FEDD
:102A3000224BF61918605960B4422BDD002001F0DA
:102A40002FFBA71B0200B84200DD3A00002AE0D1AC
:102A500001200021404200F073FC002001F0C6FA82
:102A6000002001F059FA002814D0002001F018FBD2
:102A70000028E1D1FEF7CCFE5B460F001A685B68C8
:102A8000002184460E4812184B419F4202D8D3D1F0
:102A90009445D1D9504605F0AFFDABE700200021A9
:102AA000064B18605960504605F0A6FDA2E7C046E7
:102AB00040420F00FFFFFF7F94230020A811002059
:102AC00020A1070030B52B4C85B00021200005F077
:102AD000BBFD00281CD1284B1A68002A16D0EFF342
:102AE000108172B610680028FCD0BFF35F8F0124FC
:102AF0002248596002781B68D2B20470BFF35F8F1E
:102B00000020186081F31088002A17D005B030BD6E
:102B100001200021404200F013FC002001F012FAD5
:102B20000500200005F068FD002DEFD0144B1B6858
:102B3000002BEBD0134A10689847E7E7FEF7D8FC64
:102B40000400FEF765FEFA220023920012184B41A2
:102B5000802109068B4202D301220B4B52420121F4
:102B6000029100210191094920000091FEF7C4FC67
:102B7000CCE7C04694230020C8200020B3240220C4
:102B8000481C00204C1C0020FFFFFF7F7D28001008
:102B9000D02310B51B0684B01C68FEF7A9FCFEF715
:102BA000A7FDA04202D0002004B010BD2A4B002196
:102BB00000201B7801F070FD28480368002B47D0E7
:102BC0000120FEF729FAFF23254C264920701840E2
:102BD000FDF7A6FF20780121FDF76AFF0520FDF72C
:102BE0008DFF002826D1082200211F48FFF70EFC88
:102BF000FEF77EFC0400FEF70BFEFA220023920093
:102C000012184B41802109068B4202D30122174B37
:102C100052420121029100210191154920000091A9
:102C2000FEF76AFC0028BEDB12480121FFF708FD11
:102C30000120B9E70120FDF709FF0B4B0100180047
:102C4000FEF74EFA002205200B49FDF793FFEBE754
:102C5000FEF72AFAB4E7C046448C00109423002003
:102C6000B2240220C52A0010C8200020FFFFFF7FE9
:102C70007D280010E00F00206D28001000487047EC
:102C8000008B001000487047AC8A001010B504009B
:102C900017480378002B20D0002C06D1154B16487E
:102CA0004380063BFF3B038010BD052C19D8134B16
:102CB000A400E05812490123013804E001330A80DE
:102CC0000231142B0FD0C25C002AF7D1C022DBB234
:102CD0005B00920008481343E5E7112100F01AF861
:102CE000DAE70020E0E7CA2303489B00DBE7C046A1
:102CF000A423022009040000801C0020948A0010F4
:102D0000821C002010B5024800F0D8F810BDC04663
:102D10008423002030B54B1E012900D1A7E0664A6C
:102D200011780D092C0030349F2900D9A2E00470DD
:102D3000012B00D1BEE00F21147821400C0030346B
:102D4000092900D998E04470022B00D1B2E05478F0
:102D50002509290030319F2C00D990E08170032B88
:102D600000D1A7E00F2121400C003034092900D9FF
:102D700087E0C470042B00D19CE0947825092900D9
:102D800030319F2C00D97FE00171052B00D191E0FB
:102D90000F2121400C003034092900D976E044711C
:102DA000062B00D186E0D4782509290030319F2CEC
:102DB00000D96EE08171072B00D17BE00F2121400B
:102DC0000C003034092966D8C471082B00D171E099
:102DD00014792509290030319F2C5FD80172092B05
:102DE00068D00F2121400C003034092958D8447292
:102DF0000A2B5FD054792509290030319F2C52D8F5
:102E000081720B2B56D00F2121400C003034092940
:102E10004BD8C4720C2B4DD0947925092900303140
:102E20009F2C00D9073101730D2B43D00F21214076
:102E30000C003034092901D937310C0044730E2BB2
:102E400038D0D1790C09220030329F2900D90732BD
:102E500082730F2B2ED00F220A4011003731092A1E
:102E600001D830321100C173102B23D01030002351
:102E7000037030BD07345AE737310C0063E7073180
:102E80006CE737310C0074E707317DE737310C0010
:102E900085E707318EE737310C0095E707319DE76D
:102EA00037310C00A3E70731AAE737310C00C472B1
:102EB0000C2BB1D1C018DAE78423002010B588B0FC
:102EC00004000D2200216846FFF7A0FA0D22002120
:102ED00004A8FFF79BFA4B236A466846137004A9BF
:102EE0000D2205F081FB1521082220006944FFF71F
:102EF00093FA08B010BDC046F8B500F043F90C23B2
:102F0000194DFF22AB6705201849FDF733FE184C19
:102F1000402200212000FFF779FA402700230126F4
:102F20002121144A66702783A260136063545F31C5
:102F3000618445396354104A10496360E260278711
:102F4000A1620B606362E26205F066FB80239B0571
:102F50002E64EB6490230A4A0120EA508022094B38
:102F60005202DA64F8BDC04600001150750400201A
:102F7000B41C00208400105000011050800010503C
:102F800010D001000020115010B501210520FDF7DF
:102F90008FFD10BD10B500220021024800F012F98B
:102FA00010BDC046D41C0020044B1970002904D069
:102FB00080219023024A8902D1507047AD2402201B
:102FC000002011500B785B0602D14B78052B00D006
:102FD00070478A78014B1A60FAE7C046000011502A
:102FE000F0B5C646C87800B58007830F1800012BDE
:102FF00060D08F780A794B797F213940FC091B0218
:103000004E001343334D32195201AA18977001270D
:103010006740577000275B055B0DD7701383D07630
:10302000B846CA00012C32D02B4FBC468F016244F7
:10303000BC46AC446746BA6047461760002932D0A8
:10304000264AC90090466246414451603F223F33C0
:103050009343022837D0224937190A687F01D318D1
:103060000B602049EF19FA608B422ED83619760191
:10307000AD19EB7E1C499B064A4013438022120681
:1030800013436A681360012080BCB846F0BD174F37
:10309000BC468F016244BC46AC446746BA624746B0
:1030A0001760002908D1002364012C196360104BBC
:1030B000E360E8E70020E7E70B4AC9009046624674
:1030C00041445162C2E75B00C5E7FEF7A3FDFA6821
:1030D000CCE7C046B41C00208400105004001050FF
:1030E000C4200020FF0F105000001050800010502E
:1030F0000001105010B505F08FFA10BD10B57F20FB
:103100000C0020404000E409110000191A00034B94
:103110004001C01800F056F8012010BDB41C00207A
:103120007F23180010B50840CA090B4203D1074994
:103130007D3B9B1A8B66400080188022044B400127
:103140000021C018120105F09FFA10BD0020115097
:10315000B41C00207F22130010B50B400A4200D19E
:1031600010BDC9095B005B1804485B01C01800234F
:1031700000220349C37005F087FAF1E7B41C002070
:10318000FFF7FFFF80220A4B520410B51A60094B6B
:1031900009491A6010000B689843FBD18022002176
:1031A00052010648FFF732F90922054B5A6710BD54
:1031B00000E0004000F0004008C000400000105057
:1031C00000001150002310B5C38201338282837640
:1031D0000161040005F030FA002804D0802190231A
:1031E000074A8902D150200005F0F6F9002802D0E4
:1031F0000123237710BD200005F03EFAFAE7C04610
:10320000002011507047C0467047C04600207047EC
:10321000002070477047C0467047C0467047C046A0
:103220007047C046024B5878431E9841C0B2704761
:1032300050170020024B18784007C00F7047C04657
:1032400050170020F0B5D6464F464646C0B5314B24
:1032500007009A461B780E00FF2B01D0012044E0A6
:10326000002941D0002154222B48FFF7CFF800223B
:103270002A4C2B4B20001A70FDF716FF294B1C60BF
:10328000294C2000143CFDF71DFF200001F00CFE2E
:10329000264B274D1C60274B002B2BD02800FFF717
:1032A000BFFA254B2A781860244900248946224910
:1032B0000023884610E043461B6862019B18002BE0
:1032C00012D05B68002B0FD098472A780134E4B203
:1032D000511C2300A1420FDBA242ECD89B1A5B01D8
:1032E0004B445B68002BEFD10020E0BCBA46B146EE
:1032F000A846F0BD2A78D7E75346310038001F7042
:10330000FFF7FAFD0028EFD03800FFF73DFE01205F
:10331000EBE7C0461410002050170020481700208B
:10332000AE240220A41700200C100020A8170020B3
:10333000AC24022021280010A0150020BC8B001016
:10334000F0B5DE4657464E464546E0B5C84B91B00F
:1033500002931B78FF2B00D13EE1C64BC64E9B4625
:103360005F46C64B0DAC0193C54B009335686A6947
:10337000EFF3108172B61368002BFCD0BFF35F8FA0
:10338000A9612800210001F0BDFB6A69AB69BFF3A8
:103390005F8F0021116083F31088002800D11BE1AA
:1033A0006378082BE2D89B00FB589F466368002B8C
:1033B000DCD0A0689847D9E77F222179AF4D0A4039
:1033C0005300EB189846C80980444046012330302A
:1033D00005799D430571057903339D430571002AE5
:1033E00000D100E14346A74A1B7D1278934200D3E7
:1033F000EFE0A54A5B011568ED18002D00D1EBE068
:10340000A36862792078AD69A847AFE79F4A13782F
:10341000002B00D1E0E01378013BDBB2137013788E
:10342000002BA3D10122954D01212B7804201343B9
:103430002B703423EA5C8A43EA54EA5C8243EA5400
:103440000133EA5C8A43EA54EA5C8243EA54237813
:1034500000209B4600F0A0FC602223791A40602ADD
:1034600000D1EFE0402A00D1F5E0DB06DB0E012BB6
:1034700000D113E1022B00D1C7E0002B00D0E1E026
:10348000202A00D11CE2002A00D0DBE06379092B5E
:1034900000D9D7E07E4A9B00D3589F46774D2B78C2
:1034A000DB0700D462E7FFF7BBFE5FE7019BDB7839
:1034B000DB0700D45AE76068FFF7A6FE56E76F4DBA
:1034C0002B78DB0700D451E728780007C00FFFF7FF
:1034D000A5FE4BE723786A4999468B46694B6A49B2
:1034E00098468A4639001A7847460023B046002598
:1034F0004E46894610E053461B686A019B18002B14
:1035000000D176E0DB68300098473A780135EDB2BB
:10351000511C2B008D4244DC9542ECD39B1A5B017D
:103520005B44EFE7237858499946564B8A469846BC
:103530003100BB464E461A7800250023474689468F
:103540000FE053461B686A019B18002B55D0DB68BF
:10355000300098473A780135EDB2511C2B008D426E
:1035600007DC9542EDD39B1A009A5B0194466344B5
:10357000EDE7019D542200212800FEF747FF1022AD
:10358000FF214448FEF742FF28002022FF2114308B
:103590004E465F46FEF73AFF00F0F4FBFFF73CFEB5
:1035A000E4E6364D542200212800FEF72FFF1022BA
:1035B000FF21281DFEF72AFF28002022FF211430BA
:1035C00046464F46FEF722FF00F0DCFB2379AB7046
:1035D000CCE6501C984213DA11B0F0BCBB46B246A0
:1035E000A946A046F0BDA3686279207800F0E8FB08
:1035F000BCE646464F46214DE6E74E465F46CBE7E2
:103600001F4D9B1A5B015D19FAE67023217A0B426C
:1036100018D1C80982460F330B405B009846194801
:10362000EB1853441B7D00789946834266D21648B6
:103630005B01006881469944002A00D15FE14B4656
:10364000002B68D120780021FFF76AFD80212078C7
:10365000FFF766FD8AE6104800F09EFB0121584600
:103660000EAAFFF7C3F8002800D07FE6EAE7C046BD
:1036700014100020148B0010A817002050170020F1
:10368000BC8B0010AC240220A0150020AE24022028
:10369000388B001054170020ED270010237A0F2BD1
:1036A000D0D8CF4AEB181B791578AB423ED3691CB2
:1036B0009942C7DB5D1BCB4B6D01ED18686900F0CB
:1036C0006BFB012158466B690EAA9847002800D071
:1036D0004CE66022150023791D401A42B2D163796D
:1036E0000A3B012BAED800F057FB63790A2B00D1BF
:1036F00099E158460EA900F0D9FA37E6431C4B452C
:1037000000DAF7E04B461B1A5B019946B548814445
:10371000002A00D1F3E04B46586900F03DFB4B46D0
:10372000012158465B690EAA98479CE7AE4A5B01A7
:103730001568ED18002DC1D184E7A37999466B78FF
:103740009945D6D06B78002B00D033E14B466B7097
:10375000002B00D12BE148460138C0B2FFF792FAA6
:10376000002800D17EE143780793022B00D079E155
:103770000122C179B1468B11491113400A40302111
:1037800012015B0113432A78A8468A4313432B7026
:1037900009239A4682445646BA46C37882781B0269
:1037A0001343C31805938E4B04938E4B08938E4B93
:1037B00009938E4B0A93059BB34200D855E1737869
:1037C00001220B2B03D13378F278F6187378042B8F
:1037D00000D044E1059B00279B1B9BB20693049BF2
:1037E0000B921D78002303931BE0099A7B01156857
:1037F000ED18002D00D132E1310058462B69069AB0
:1038000098478446082803D9069A824200D313E1D8
:10381000049B01371D78FFB26B1C03979F4200DDAC
:103820001DE1BD42E1D8039B5D1B089B6D019C46D9
:103830006544E1E76B780CAA023213705846012305
:103840000EA900F049FA91E5E3881A0AD8B20F2AC6
:1038500000D9F7E666499300CB589F460EA800F0C2
:10386000A1FA5846A179FFF795FB02222B78134362
:103870002B707BE5E388012B00D0E3E608222B7850
:10388000584693430EA92B7000F010FA6EE5022003
:1038900029780CAB9A1C8B068908DB0F01400B437F
:1038A0001380584602230EA900F016FA5EE5E3885D
:1038B000012B00D0C6E608222B7813432B7018E7A3
:1038C000237A0F2B00D9BDE6EB181D79444B1B78EA
:1038D0009D4228D2444B6D011B685D19002D00D11B
:1038E000B0E6686900F058FA012158466B690EAAE3
:1038F0009847B8E6002A00D0A4E6002399466279EA
:103900000220130003928343012B15D0002A00D01C
:1039100098E62B004344534430331B790CAA9B0791
:10392000DB0F0232BCE75A1CAA4200DA8AE6ED1A23
:103930002C4B6D01ED18D4E7E388002B12D1029BCC
:103940001878039B012B23D0FFF7EAFB43460221A3
:10395000EB18534430331A790A4301211A711A794A
:103960000A431A714B46002B00D1FFE4586900F05E
:1039700013FA4B4601215B690EAA5846984700206E
:1039800000F00AFA3523EB5CDB0700D5EEE4B0E685
:10399000FFF7E0FB43460221EB18534430331A791A
:1039A0008A431A711A7903998A431A71DAE7FFF781
:1039B00033FC9EE600215846FFF7F6FA5846FFF71B
:1039C00099FBAB78074903930491054B0649984648
:1039D0001A780591002329001D008A461BE0C04685
:1039E000AC240220BC8B0010A0150020641700201E
:1039F000608B0010059B6A011B689B18002B4DD043
:103A0000DB685846984743461A780135EDB2511C99
:103A10002B008D422EDC9542ECD39B1A049A5B015D
:103A200094466344ECE70CAB9A1C584601230EA95C
:103A3000157000F051F999E40B9A012A4FD0002A31
:103A40003CD00023B07804E00133DBB20F71934225
:103A500034D2C118C9B241440D79FF2DF4D04E467D
:103A60004546574600236B70ECE54E465746FFF738
:103A7000D1FB3EE65546542200212800FEF7C6FC45
:103A80001022FF21281DFEF7C1FC28002022FF2163
:103A90001430FEF7BBFC039BAB7057E65546FAE7C4
:103AA000FEF7A0FE021E00D1CCE5D37891781B0270
:103AB0000B4358460EA900F00FF9D4E565463B00CC
:103AC0002A0031000A9800F08DFEAC46049B039A50
:103AD0001B7866440133934200DB6CE6BFE7174B6B
:103AE00029699942ADD1079AABE7FFF78FFB021E18
:103AF00000D1A7E5584613780EA900F0EDF8B2E51D
:103B00002189FFF7C3F8021EF4D19BE5022A0FD0EA
:103B1000FFF77EFB021EC8D194E5FFF7AFF8021E47
:103B200000D18FE5122358460EA900F0D5F89AE58A
:103B3000FFF7A8F8021EB8D184E5C046A5410010E1
:103B4000F8B557464E46DE4645460C00E0B5160031
:103B50001F00002A3CD01F4B00259A46702399462F
:103B60001D4B9B4617E05B462000997800F0FCFD5A
:103B700000281FD021004046FFF732FA002819D054
:103B8000A378DA09012A1CD00A9A01351370237828
:103B9000E418B5421CDA6378052B0BD1E3789B0758
:103BA0009B0FBB4206D153464A461B789846A378E2
:103BB0001A42D8D00020F0BCBB46B246A946A04667
:103BC000F8BD0B9A013513702378E418B542E2DB97
:103BD0000120F0E71410002050170020702270B56B
:103BE000094B0C001D788B781A4201D0002070BD63
:103BF000064B2000997800F0B7FD0028F6D0210090
:103C00002800FFF7EDF9F2E714100020501700200C
:103C10000B007F2010B51840DB0934334000044A04
:103C2000C018044B1168C01800F05AFD10BDC04602
:103C3000A4170020501700200B007F2010B518405B
:103C4000DB0934334000044AC018044B1168C01823
:103C500000F06EFD10BDC046A417002050170020D4
:103C600070B57F240F480C4064000419CD09641915
:103C700030342079C00701D5002070BD0126257998
:103C80000948354300782571FFF738FA0028F4D148
:103C900001222379934323712379033293432371C0
:103CA000EAE7C046501700201410002070B5094CF8
:103CB0000600082220000D00FEF7AEFB0023802145
:103CC000E360A3602B783000994300220023FFF7C4
:103CD000C7FF70BD30170020F8B5CE464746904666
:103CE000264E80B58146082230000D001F00FEF7E9
:103CF00093FB4346B3600023F381EC79AB79240254
:103D00001C43231CBC4200D93B1C9FB2B381002C36
:103D10000ED0002F18D04346002B2CD03B1C402F38
:103D20001BD89FB233787F2B1CD80021144A0FE098
:103D300080212B780022994348460023FFF790FF0B
:103D4000C0BCB946B046F8BD7F2300223178994304
:103D50003B004846FFF784FFF2E740239FB23378E9
:103D60007F2BE2D9064C3A0041462000FEF754FB77
:103D700080212200ECE70020E2E7C0463017002057
:103D8000F016002010B5142200210248FEF73EFB79
:103D900010BDC04630170020014B18617047C04667
:103DA0003017002010B5054C010008222000FEF756
:103DB00033FB0023A360E36010BDC0463017002032
:103DC00070B5384C1D0023780600DA09C9098A420B
:103DD00010D00020002D00D070BD21003000FFF772
:103DE000F1F82369002B03D022000321300098470B
:103DF0000120F1E7A0687F2B05D8002834D02A00E5
:103E00002949FEF709FBE289A1685219E38892B2B9
:103E10004919E281A160934214D03F2D12D9A389A0
:103E2000981A051C80B240282AD82078ADB27F2885
:103E300028D800219A4232D01B4A2B003000FFF7CD
:103E40000FFFC9E72369002B05D0220002213000B3
:103E5000984700280AD08021237800229943300017
:103E60000023FFF7FDFEB7E70020B5E70021300093
:103E7000FFF756F930008021FFF752F90120ABE738
:103E80004025D2E79A4207D0074C2A002000FEF7CF
:103E9000C3FA80212200D0E780210022CDE7002252
:103EA000CBE7C04630170020F016002070B50500A3
:103EB000FFF7B8F9002800D170BDFFF7BBF9002863
:103EC000FAD1C8236B43124CE618F1780029F3D0DD
:103ED00010331C19200000F0FFFD3F28ECD9002012
:103EE000F178FFF795FE0028E6D0200000F0F4FD01
:103EF0003F2808D9074BEA01D218F1784023002067
:103F0000FFF7AEFED8E7F1780020FFF795FED3E784
:103F100028160020A415002010B50400FFF782F930
:103F2000002801D1002010BDFFF784F90028F9D145
:103F3000C8226243024B01309B181B791840F2E7FC
:103F400028160020C82310B543430248181800F073
:103F5000A5FD10BD38160020F0B5C824C646802344
:103F600044431F4F1034050000B53C195B029A42D0
:103F700000D31C4A200092B200F012FE8046FFF7E8
:103F800051F9002803D1404680BCB846F0BDFFF788
:103F900051F90028F7D1C8266E43BE19F378002BDB
:103FA000F1D0200000F098FD3F28ECD90020F178F6
:103FB000FFF72EFE0028E6D0200000F08DFD3F2800
:103FC00008D9094BEA01D218F17840230020FFF705
:103FD00047FED8E7F1780020FFF72EFED3E7C04672
:103FE00028160020FFFF0000A4150020F8B50600E9
:103FF000FFF718F9002801D10020F8BDFFF71AF9E2
:104000000028F9D1C82474432500134F2435ED1935
:10401000280000F043FD0028EED03F190020B978B9
:10402000FFF7F6FD0028E7D00C4BF401E41821005F
:104030002800402200F0B4FDB978051E08D0030026
:1040400022000020FFF70CFE0028D5D02800D4E77E
:104050000020FFF7F1FDCFE728160020E41500202F
:1040600070B5C82444430C4B0500E41880235B0260
:104070009A4200D3094A200092B200F059FE06008D
:10408000200000F00BFD3F2801D8300070BD280053
:10409000FFF7ACFFF9E7C0464C160020FFFF000019
:1040A000C82310B543430248181800F015FD10BD91
:1040B0004C160020F0B50025184C83B0C822002112
:1040C0002000FEF7A3F9164B21001D70FF2363713A
:1040D000E1235B02A360200008234022A373383150
:1040E0000095073B103000F0A3FC270001232100BE
:1040F00020002600402278310093B837243000F0A9
:1041000097FCC0363800FCF7CFFF3000FCF7CCFF3F
:10411000E56127622663656303B0F0BD28160020C1
:10412000241600200B4B196B00290AD01A6A002AAA
:104130000DD000221A621A63DA6100225A6301204C
:1041400070471A6A002AFAD0D9611962F7E71A6330
:10415000F3E7C0462816002070B50F4C0522002159
:104160002000FEF753F90D4D2B78DA0707D50C4CDC
:104170009B070CD50121200000F0B6FE70BD200089
:10418000103000F091FE2B78054C9B07F2D42000F4
:1041900000F08AFEEEE7C046281600202416002014
:1041A0004C160020F0B54B79060083B0022B02D1EB
:1041B0008B79022B03D00025280003B0F0BD214FDE
:1041C000BB78002BF7D18B7809253B700C780C1944
:1041D0006378242B0BD1082A02D80FE0AA420DD312
:1041E0002378E4185D196378ADB2242BF6D0052B43
:1041F00008D0042B02D163790A2B11D00020FFF7DD
:1042000055FED9E721003000FFF7E8FC0028D2D0A6
:10421000A3787B7023785D19E4186378ADB2E8E782
:10422000094B2778019301330093022202233000C7
:10423000E119FFF785FC0028BDD00E35ED19ADB2B0
:10424000DCE7C046281600202A160020F8B56023B7
:1042500014001278050013400020202B07D1304AAB
:104260006379277916781B023B439E4200D0F8BD44
:104270006378222B1AD007D8202B34D0212BF6D1EB
:1042800001293ED00120F2E7232BF0D1012940D0B3
:104290000329F7D1234B002BF4D0E178A37809024E
:1042A0000020194300E000BF0120E0E7012930D0E1
:1042B0000329E7D101252E00A378E47802392402EE
:1042C0001C431471264024321000714000F00CFE93
:1042D000154B002BD6D06208002031002A4000E0A8
:1042E00000BF0120C3E701290BD00329CAD10F4B1E
:1042F000002BC7D0083200201100FEF797FA0120EA
:10430000B5E7072321002800094AFFF7E5FC012053
:10431000ADE721002800FFF7C9FC0120A7E7C04650
:104320002816002000000000000000002D280010CA
:1043300030160020F0B54F464646D646364DC0B53D
:10434000EA781F0080460C00AB788A423BD08B4253
:1043500010D00020E0BCBA46B146A846F0BD2F4BB5
:10436000002B04D02E4800F0AFFB002851D00020D5
:10437000FFF79CFDAB78A34201D00120EAE7294B6F
:10438000002B02D0002000E000BF0020FFF72EFE2F
:104390000028F2D1244C200000F080FB0028ECD152
:1043A000002FEAD0BF06E8D1243C4046A178FFF7B1
:1043B0002FFC0028E1D0002300224046A178FFF71F
:1043C0004FFC0120C6E710239A46184EAA4431003C
:1043D0005046BAB200F0ACFC154B002BBFD06B7945
:1043E000FF2BBCD0002FBAD0F219914603E0013662
:1043F000B145B4D06B7932789A42F8D1504600F08A
:1044000063FB0028F3D15346103B597900E000BF0D
:10441000EDE700E000BFAAE728160020000000003A
:1044200038160020000000004C160020A4150020C3
:10443000000000009322F0B5134C85B0002120004D
:104440009200FDF7E3FF23002000802640270F4D58
:104450004D337600FF33293002950093002200236C
:10446000002103970196FF3000F0D6F94035201D5A
:10447000283400230122002103970295019600941D
:1044800000F0CAF905B0F0BDEC1800206C1800204F
:1044900010B5054C200000F0F5F920002538FF3854
:1044A00000F0F0F9012010BD141A002070B5084C7E
:1044B000002520003130FF30257000F0F5FC200091
:1044C0000C3000F0F1FC2A23FF33E554657170BD18
:1044D000EC180020F8B557464546DE464E46E0B596
:1044E0004B7980460F00FF2B27D1424B0C78994621
:1044F0002A234946FF33CB5C002B1ED14E79002E78
:104500001BD1BB783C190B703B79002B12D0982340
:104510005B004B449A460C234B449B46A51863789A
:10452000052B05D110E02378E4186378052B0BD018
:10453000A542F8D8E01B80B200E00020F0BCBB46EA
:10454000B246A946A046F8BDA542F3D9210040468F
:10455000FFF744FB0028F0D0A3780136F6B2DB0960
:10456000012B29D0504600F09FFC2A234946A2780F
:10457000FF33CA54637922791B0213431E4A5B0539
:1045800094465B0D942163445A4253414A460220AB
:104590004900525C5B00824313434A4653545146E0
:1045A0004046083900F0D6F90028C6D02378E41830
:1045B0003B79B342B3D8BDE7584600F075FC5A4684
:1045C000A3780C3A5371637921791B020B430A4992
:1045D0005B058C465B0D634459424B4102201179C7
:1045E0005B0081430B43594600200839137100F0EA
:1045F0007FF9DBE7EC18002000FEFFFF70B5050037
:104600002A201F4CFF30205C1E006379884203D0B3
:1046100000208B421DD070BD9A235B00E35A002B13
:104620000DD1184B002B04D000201749B2B200E086
:1046300000BF2800154900F08DF90120EBE72000AC
:10464000962331305B00E158B2B2FF3000F070FBCE
:10465000E7E70F4B002B04D031040020090C00E0E9
:1046600000BF0C4C2800210000F042F90028E4D1E2
:1046700032002100280000F007F90120CBE7C046F6
:10468000EC180020000000006C180020141A002014
:1046900000000000F018002000B5030083B00029DE
:1046A00010D00020012B07D80A78002A04D00B482C
:1046B000C2540120012A01D003B000BD1800FEF74A
:1046C000C1FDF9E7012301A900200B80FEF7BAFD27
:1046D0000028F1D00122014B1A70EDE744170020A9
:1046E000037870B5DB0704000E00DD0F002B17D137
:1046F00003785B0701D5280070BD012130004942D5
:1047000003F0AAFF2378DB07DD0F002B0AD1237803
:104710005B0708D40422237801251343237002E0A9
:104720000025E8E70025300003F066FFE3E7C04618
:1047300070B50C00012106004942200003F08CFFF7
:1047400033785B07DD0F002B04DB200003F054FF00
:10475000280070BD3378DB0704D4042233789343F8
:104760003370F2E70025F0E7437902791B02134327
:10477000C2785B0592075B0D920F022A1DD0032AB7
:104780000CD00020012A08D102394A425141124A74
:104790009446614499424041C0B2704702394A1E72
:1047A00091410E4A494211408022D2009446002095
:1047B000614499424041C0B2EFE7022905D0002090
:1047C00040229A424041C0B2E7E7054A9818434266
:1047D0005841C0B2E1E7C046FF03000040FCFFFFC4
:1047E00000FEFFFF8A1870B5914207D27F264C78F1
:1047F000052C04D00C7809198A42F8D870BD340011
:104800008D782C4064000419ED0963550C78091962
:104810008A42ECD8F2E7C046F0B5C64600B582B091
:10482000150008AA40CA040017880BAA12880120A4
:1048300090460A00217802408143200011432170F4
:104840003A00009331000123083000F0F1F8002E07
:1048500001D0002F08D10A9B01206360434663808A
:1048600002B080BCB846F0BD26001C363000FCF714
:104870001BFC0023002D01D0330000266361A661DC
:10488000E9E7C04601207047F8B502240B7807001D
:104890001C4063425C41144B64421C40134B0800B3
:1048A0009C4608300D001600644400F0F7F800281C
:1048B00007D1002E05D0344203D101242B781C42AD
:1048C00001D00020F8BD38006978FFF7A1F9002871
:1048D000F7D02B781C42F4D10023002238006978ED
:1048E000FFF7BEF9EEE7C04640FEFFFFFF01000004
:1048F000F8B50D000835060028000C0000F0CEF8D1
:10490000002803D0012723781F4201D00020F8BDE2
:1049100030006178FFF77CF90028F7D02800628822
:10492000616800F03DF92378051E0BD01F42EDD1E0
:104930000300626830006178FFF792F90028E5D043
:104940002800E4E71F42E1D130006178FFF774F9F5
:10495000DCE7C046F8B5CE46474680B58A890500F3
:104960000C000B78002A07D101261E423FD0002000
:10497000C0BCB946B046F8BD9B0734D5FE2380269F
:104980001B029946B60027000837380000F0A4F84B
:104990008642ECD80122237890461A42E7D12800BB
:1049A0006178FFF735F90028E1D0380000F094F87D
:1049B000864231D84146237862881942D7D14B4686
:1049C0001840061C904200D9161CB6B2002261782D
:1049D000002E00D0626833002800FFF741F900285C
:1049E000C5D03000C4E7114B40269946CBE7497843
:1049F000FFF70EF90028BAD0227863881642B6D1A4
:104A000000226178002B00D062682800FFF728F9A7
:104A10000028ACD06088ABE7424623781A42A6D182
:104A200028006178FFF708F9A1E7C046C0FF000041
:104A3000F0B5C64600B5040006A805788020884673
:104A400017001E000002824226D8E068002803D02A
:104A50000121494203F000FE2069002803D0012112
:104A6000494203F0F9FD4346236073045B0CED03F8
:104A70001D430023E0686381A780E580238100282F
:104A800001D003F0B9FD2069002801D003F0B4FD86
:104A9000012080BCB846F0BD0020FAE710B50489BB
:104AA00041898288A3B288B28C4207D31B1A9BB279
:104AB000101C9A4200D9181C80B210BD5100091A6E
:104AC0005B189BB2F4E7C04603894089181A434239
:104AD0005841C0B27047C04610B5048941898288E8
:104AE000A3B288B28C4207D31B1A9BB200209A4211
:104AF00001D9D21A90B210BD5100091A5B189BB2AD
:104B0000F4E7C04670B5040000690E00002803D029
:104B10000121494203F0A0FD25896089A288A9B23C
:104B200083B285422CD3CD1AADB2002D2ED0AA422D
:104B300008D2914230D3891A8BB263819A4203D84A
:104B40009B1A9BB29A42FBD9E28821685204520C0C
:104B500053433000C918FDF75FFC63890125591CD8
:104B600089B2A2888B4213D900215200891A89B2D6
:104B700020696181002801D003F03EFD280070BD4E
:104B80005500ED1A4D19ADB2002DD0D1618989B211
:104B900052009142ECDBE9E789188BB26381CDE7E3
:104BA000F0B546464F46D646C0B506000069894670
:104BB0009046002803D00121494203F04DFD318980
:104BC0007289B5888BB294B2914254D31F1BBFB285
:104BD000002F4AD0BD4205D2AB4251D25B199CB2E4
:104BE0002F0074814346B8453DD89FB2A54203D8F3
:104BF000641BA4B2A542FBD9F28831685204520C5E
:104C0000904662432B1B9BB2891842469F4225D98E
:104C100053439BB21A0048469A46FDF7FDFB4346B4
:104C200048467D1B64195C4331685044A2B2FDF7CD
:104C3000F3FB7189B588CB199BB26A00994216D9EA
:104C40009B1A9BB230697381002801D003F0D4FC19
:104C50003800E0BCBA46B146A846F0BD48467A43A3
:104C6000FDF7DAFBE5E73B1CBFE773899BB26A00FF
:104C70009342E7DBE4E76F003F1BDF19BFB2A7E712
:104C80005B1B9CB2ACE7C046F8B50400C0680E00E0
:104C9000002803D00121494203F0DEFC2589208948
:104CA0006189A288ADB283B28FB2884229D3DB1B5F
:104CB0009BB29A4209D8E779FF0906D1E06800283B
:104CC00001D003F099FC3800F8BD95421ED32B00AB
:104CD0009B1A9BB29342FBD2E28820685204520C8A
:104CE00053433100C018FDF797FB6B1C9BB2A288A1
:104CF0009D4218D9002352009B1A9BB201272381A1
:104D0000DCE75100C91B5B189BB2D2E72B00E2889D
:104D100020685204520C53433100C018FDF77CFB4D
:104D20000135A288ABB252009342E7DBE4E7C0460C
:104D3000F0B557464546DE464E46E0B51400050040
:104D40000F0083B0002A75D0C068002803D001216D
:104D5000494203F081FC2E89E9796A89AB88B6B2B1
:104D600092B2C90945D1964200D36DE059008A1A22
:104D7000B21892B2002189469A4234D29A1A111C72
:104D800092B2A24200D9211C8AB29146EA8852040A
:104D9000520C90464A46B21892B292464A46D21AED
:104DA00092B2934634009E4203D3E41AA4B29C42CA
:104DB000FBD24246624328681B1B9BB280184246C6
:104DC0004B4554D34B4639005A43FDF725FBAB887E
:104DD0005B00564501D89A4503DB5246D31A9BB275
:104DE0009A4653462B81E868002825D003F004FC3E
:104DF00022E0E9884904490C88469C4227D2964221
:104E000047D3B11A89B28C465800E11A89B28B4651
:104E100061460919814208DBD11889B20E1BB6B26E
:104E20008A46B2423BD9361AB6B2A21992B292461B
:104E3000A146B7E700239946484603B0F0BCBB46FD
:104E4000B246A946A046F0BDB21A92B292E700213E
:104E50008946002BC7D04146E41A4C431600D118AE
:104E6000002289B28A46994693463F199AE75343EE
:104E70009BB21A0039005C440193FDF7CDFA41461C
:104E800022004A43019B286892B2F918FDF7C4FA40
:104E90009DE75800811A711889B28C46B5E7A14682
:104EA000B04200DD7EE7BEE710B50400C068002810
:104EB00003D00121494203F0CFFB2069002803D031
:104EC0000121494203F0C8FB0023E068638123818C
:104ED000002801D003F090FB2069002801D003F0E6
:104EE0008BFB012010BDC04670B50400C0680D00EA
:104EF000002803D00121494203F0AEFB20690028BD
:104F000003D00121494203F0A7FB7F21E379ED01A2
:104F10001940E0682943E171002801D003F06CFBDF
:104F20002069002801D003F067FB012070BDC04656
:104F3000F0B5C646431E00B50A3314D80723040053
:104F40001A000834224023426CD01300093BA342CC
:104F500009D31030841A01F0EDFC374A2700156898
:104F6000002D28D10EE001F0E5FC334A1368002B38
:104F700006D0002502F0A8FD280080BCB846F0BD90
:104F80000027002407202D4D2B002900284245D161
:104F900000202B4E706031602A4EB44607266544CF
:104FA000B5431560284AEB1A1360284A68602860E8
:104FB00013604B600D60002FDBDD244F3E68A6427E
:104FC000D7D31F48036804E01A68002A04D01800E9
:104FD00013005968A142F7D3AB42CAD01D001A682A
:104FE0000835904602600A1B102A05D919194A6033
:104FF00042460A6001602100134A761A10683E603A
:10500000864200D21660802212060A435A600022AD
:105010001A600F4A136801331360ABE7EB1D83433B
:105020001900B5E701F086FC034A27001568002D3A
:10503000A8D0002CC1DA9CE7F02000209C2300209F
:1050400068240220F8FF01003824022028240220CE
:105050004424022070B5002804D0083843680400B6
:10506000002B00DB70BD0268002AFBD15B005B08EF
:105070004360050001F05EFC184A616813685B1824
:105080001360174B1A001B689C42FBD85068161817
:10509000B4420DD0601883421AD02360AA4200D0D7
:1050A0001560104A13680133136002F00DFDD9E753
:1050B0000918501851608342F3D10B48150000685D
:1050C0008342EED058681B68411869602B60E5E7A1
:1050D000054800688342F5D1DFE7C0462824022056
:1050E0006824022048240220F02000200000000054
:1050F0000BA10CC9126892009B581868203080F3ED
:105100000988022080F31488BFF36F8F3FBCAE463E
:1051100008BC04BC62B61847C046C046C046C0467C
:10512000000000D0E0200020D0231B061A6DD2071B
:1051300004D501219A6D1A6D1142FBD1D023FF22B3
:105140001B061A658022024B52051A607047C04642
:1051500004ED00E00000000000000000000000007E
:10516000EFF309811AA00CC8106880001B1818689A
:1051700020390160F0C144464D4656465F46F0C1B5
:10518000146E556E566F176F3039F0C1106808B540
:1051900072B601F04FFC62B60CBC116808681030A2
:1051A000F0C8A046A946B246BB4680F309880D2246
:1051B00012073038F0C81466556656671767F0C88E
:1051C0001847C046C046C046C046C046C046C04656
:1051D000000000D0E020002010B5FBF7A9FBC0467E
:1051E00010B502F023FA040001F012FC002803D0ED
:1051F0008022034B52051A60200002F0F3FD10BD1F
:1052000004ED00E07047C04610B58024031F64041D
:105210001C60043B19600349043B1960143B40388F
:105220001A6010BDD95100108022044B52051A603B
:10523000BFF34F8FBFF36F8F7047C04604ED00E0A0
:10524000EFF3108072B6704780F310887047C04645
:10525000D02300221B065A657047C046002310B5B4
:10526000084A094C052023601360FCF7C9FBFA21AA
:105270008900FCF7C1FD054B013818600723236046
:1052800010BDC04618E000E010E000E014E000E0CF
:1052900070B5224B1A78D0231B061B689A4230D077
:1052A000FF231F4A1B0411680E200B4313601D4986
:1052B00003F032F80B201C4903F02EF8D023FF2214
:1052C0001B061A651A6DD20704D501219A6D1A6D55
:1052D0001142FBD1D0252D062C68FF210F34200070
:1052E000FBF72CFE20001149FBF71AFC01212000DE
:1052F000FBF7DEFBFFF7FCFE286801F09BFBFBF7EA
:1053000017FBFFF7ABFFFF23054A1B0611680F20B1
:105310000B431360064902F0FFFFC1E715100020A0
:1053200020ED00E0615100100552001029510010DD
:10533000E151001010B572B6FFF7AAFF10B50E20AC
:10534000FBF778FB0F20FBF775FB0022044B1A706C
:1053500003F00EF8034803F07DF8FFF799FFC0460D
:10536000151000203553001010B50A4B1B78FF2B89
:105370000CD0EFF30580002805D0D0231B061B6856
:105380004000C01810BD01F08BFFFBE7D0231B06C7
:105390001868F7E7151000200A001D4910B58C4663
:1053A000036882B063449C105C2B00D9183C194BF5
:1053B0001B78FF2B22D00121A14040BF0368BFF31F
:1053C0005F8F0020186082F31088EFF30583DBB253
:1053D000002B05D1104B186800F04CF902B010BD3D
:1053E0000D4B019001AA186800F092F9019B002B67
:1053F000F4D08022094B52051A60EFE740BF0368E2
:10540000BFF35F8F0021196082F31088E6E7C04682
:1054100000FFFF2F151000202424022004ED00E0DF
:10542000F0B51D00314B06001B780F00140083B04F
:10543000FF2B4ED0FCF7ECF922002B00121A8B4107
:1054400001212B48494280185941002921DC1CD0F8
:105450003368BFF35F8F00221A6087F31088254BF3
:105460005A6A95420AD98022234B52051A60BFF32B
:105470004F8FBFF36F8F002003B0F0BD9B6A0120F8
:10548000A342F9D29542F7D1EDE7FA239B00984267
:10549000DED3FA2200239200FCF7D4FC031ED7D0FF
:1054A0003268BFF35F8F0021116087F310881349C2
:1054B000134A8C4610683268624496105C2A00D900
:1054C000183E01210093B1400023012200F076F83C
:1054D000C5E70368BFF35F8F00221A6081F310886D
:1054E00020002900FCF706F9C6E7C0461510002089
:1054F00018FCFFFF0040054004ED00E000FFFF2F17
:105500002424022010B500F04DF8014B186010BDA6
:1055100024240220F8B5DE4657464E464546E0B5FF
:1055200005000F00060001F005FA29682C693943CF
:105530000C362960A6422CD0002398468023DB0439
:105540009B4680235B049A4680239B0499460FE088
:105550006746002F0AD057463A4202D042461A43C5
:1055600090464B46194302F0F3FA2968A6420ED042
:1055700020000F000268646813021B0A1F40BC462B
:105580005F463A42E4D06345E5D0A642F0D14346B7
:105590009943296002F098FAF0BCBB46B246A9468E
:1055A000A046F8BD10B51C20FFF7C2FC041E03D0B6
:1055B000002308C000F0B8F8200010BDF0B5C646C2
:1055C000060000B50D0090461F0001F0B3F93468E5
:1055D000002F13D125420BD04346002B0BD02300C4
:1055E000AB43336002F070FA200080BCB846F0BDD7
:1055F000069B002B21D102F067FAF5E72B00234030
:105600009D42E9D0069B002BF5D0434680215A1ECF
:105610009341C9041B061943069A2943301D01F022
:105620002DFC02F051FA00281CD002F007FC040007
:10563000830107D52402240AD6E741464B1E99412F
:105640000906E9E701F094FF3468002F0DD12C42E0
:1056500005D04346002B02D02300AB43336002F059
:105660001DF8E7E701F06AFFDFE723002B409D42CA
:10567000F5D1EEE7F0B5DE4657464E464546040006
:10568000E0B583B00D000600019001F053F922004F
:10569000136824690C361D4337001560A6422BD0D1
:1056A000002399468023DB04984680235B049B46B5
:1056B00080239B049A460FE000290BD059460A42EA
:1056C00002D04A461A4391465146294302F040FA15
:1056D000019B1D68A7420DD02000290046460268A4
:1056E000646813021B0A19403242E5D08B42E5D0B0
:1056F000A742F1D14B469D43019B1D6002F0E4F9A6
:10570000280003B0F0BCBB46B246A946A046F0BD97
:1057100010B5044C13000A000100200002F0E8FD5F
:1057200010BDC04615550010030008330122436028
:10573000C360036100235242826003607047C04629
:10574000002303617047C04643689A684B608A60D3
:105750005160996003680861013303607047C04677
:10576000030030B50D6808336A1C0DD01C005B685F
:105770001A68AA42FAD94B60996003688C600133B9
:1057800061600861036030BD04696368F3E7C04687
:105790000369416882688A6051605968814205D016
:1057A0000022026118680138186070475A60F7E7F4
:1057B000F0B5DE464E4657464546E0B585B0060094
:1057C00001F0D6FE4523F45C64B2002C21DD213BC0
:1057D000994621339A46B14409E0AA6BEB6B0396D4
:1057E0009A4245D3013CE3B264B2002B11D0B56CB0
:1057F000002DF2D1736A002B0BD0484601F0D2FB8A
:105800000028EFD001F042FD013CE3B264B2002B6E
:10581000EDD14523FF22F25401F040FF01F0A8FE34
:1058200044233500F45C103564B2002C05DC13E031
:10583000013CE2B264B2002A0ED03369002B0BD0D7
:10584000280001F0AFFB0028F2D0013C01F01EFD62
:10585000E2B264B2002AF0D14423FF22F25401F0F4
:105860001DFF05B0F0BCBB46B246A946A046F0BD40
:1058700053462A6CEF5CAB6B7FB29846002A16D178
:1058800001239C462B68E0449B46002B2BD04346CB
:10589000AB637B1C1DD16B6A002BA3D02800243086
:1058A00001F080FB00289DD001F0F0FCACE703A9DB
:1058B0006868FCF7B1FD41466B682A6C01319B18A2
:1058C000AA686B60934201D32B686B60A9637B1C51
:1058D000E1D001F097F8B84200D883E745230137BB
:1058E0007FB2EF547EE7A86801F066FD5B46AB60CF
:1058F00043460190AB637B1C09D16B6A002B0FD12F
:10590000019B002B00D16DE701F0C0FC7CE701F0AA
:1059100079F8B842F4D9534601377FB2EF54EFE734
:105920002800243001F03EFB0028E9D06AE7C04699
:10593000F0B5C64600B5846C82B0A26BE36B00255F
:1059400001909A4204D3280002B080BCB846F0BD52
:105950004523226CE65CA76B76B2002A1CD06068F7
:1059600001A9FCF759FD6368226C9B18A26863606B
:10597000934201D32368636000250137A763731C3A
:1059800015D1636A002BDED02000243001F00AFB21
:105990000028D8D00125D6E723689846002BEBD104
:1059A000A06801F009FD43460500A360E5E701F0AA
:1059B00029F88642C7D24523013676B2E654C2E7BB
:1059C000F8B505000E001700002841D0030C0A0CA2
:1059D000002B42D1002A30D13000684303005533F8
:1059E00036D85430FFF7A4FA041E31D00300002E3D
:1059F00031D12360E563266401F0BAFD216CE36BCD
:105A000022684B43D0185B1A6260D218E260FF2311
:105A100000254422A0602000A563A3540132A354B2
:105A20001030FFF781FE20002430FFF77DFE01F0EB
:105A300035FE5023E754A5640BE0131CA9B2B2B2A3
:105A40004A4380B29BB24343120C9B181B0CC3D039
:105A500000242000F8BD5433CBE7002AF8D1301CD5
:105A6000ECE7C046F0B5CE46474680B585B00400A9
:105A7000884699460192022B00D19DE001F078FD05
:105A8000A36BE26B0027442500269A4232D8019B83
:105A9000002B64D0002F5ED001F000FE00F04AFF22
:105AA00001F066FD635D5BB2013300D166554523AD
:105AB000E25C52B2013200D1E65401F0EFFD01A9DF
:105AC00002A801F0E1FA002800D06FE001F050FDDB
:105AD000A26BE36B9A422CD001F0E0FD2000FFF7AF
